:10000000D9C20000FEC20000FCC20000FAC200001B
:10001000F8C20000F6C20000F4C20000F2C2000004
:10002000F0C20000EEC20000ECC20000EAC2000014
:10003000E8C20000E6C20000E4C20000E2C2000024
:1000400015C40000DEC2000010C3000040C3000061
:10005000D8C20000D6C20000D4C20000D2C2000044
:100060000C94DC08CEC20000000000080002010071
:100070000003040700000000000000000102040863
:100080001020408001020408102001020408102002
:10009000040404040404040402020202020203032E
:1000A0000303030300000000250028002B000000CC
:1000B0000000003E5B4F5B3E3E6B4F6B3E1C3E7C48
:1000C0003E1C183C7E3C181C577D571C1C5E7F5EF6
:1000D0001C00183C1800FFE7C3E7FF0018241800B5
:1000E000FFE7DBE7FF30483A060E2629792926404C
:1000F0007F050507407F05253F5A3CE73C5A7F3E78
:100100001C1C08081C1C3E7F14227F22145F5F0009
:100110005F5F06097F017F006689956A60606060A5
:100120006094A2FFA29408047E040810207E201090
:1001300008082A1C08081C2A08081E101010100C99
:100140001E0C1E0C30383E3830060E3E0E060000E7
:1001500000000000005F00000007000700147F148B
:100160007F14242A7F2A12231308646236495620FA
:10017000500008070300001C2241000041221C001F
:100180002A1C7F1C2A08083E0808008070300008DE
:1001900008080808000060600020100804023E51B2
:1001A00049453E00427F4000724949494621414944
:1001B0004D331814127F1027454545393C4A4949AB
:1001C0003141211109073649494936464949291E15
:1001D0000000140000004034000000081422411404
:1001E00014141414004122140802015909063E4156
:1001F0005D594E7C1211127C7F494949363E41417E
:1002000041227F4141413E7F494949417F090909D6
:10021000013E414151737F0808087F00417F410042
:100220002040413F017F081422417F404040407FF1
:10023000021C027F7F0408107F3E4141413E7F093E
:100240000909063E4151215E7F091929462649497F
:10025000493203017F01033F4040403F1F204020BF
:100260001F3F4038403F63140814630304780403BD
:100270006159494D43007F4141410204081020006B
:100280004141417F040201020440404040400003DC
:1002900007080020545478407F28444438384444A8
:1002A0004428384444287F385454541800087E09A0
:1002B0000218A4A49C787F0804047800447D4000C0
:1002C0002040403D007F1028440000417F40007CDA
:1002D000047804787C080404783844444438FC18D2
:1002E00024241818242418FC7C08040408485454B6
:1002F000542404043F44243C4040207C1C204020E3
:100300001C3C4030403C44281028444C9090907C49
:100310004464544C4400083641000000770000005B
:100320004136080002010204023C2623263C1EA19D
:10033000A161123A4040207A3854545559215555FC
:1003400079412254547842215554784020545579AB
:10035000400C1E527212395555555939545454593E
:1003600039555454580000457C410002457D4200F7
:1003700001457C407D1211127DF0282528F07C5427
:100380005545002054547C547C0A097F4932494920
:1003900049323A4444443A324A4848303A41412189
:1003A0007A3A42402078009DA0A07D3D4242423DE5
:1003B0003D4040403D3C24FF2424487E4943662B79
:1003C0002FFC2F2BFF0929F620C0887E090320541B
:1003D0005479410000447D413048484A3238404019
:1003E000227A007A0A0A727D0D19317D2629292F79
:1003F00028262929292630484D4020380808080891
:1004000008080808382F10C8ACBA2F102834FA0092
:10041000007B000008142A142222142A1408550014
:10042000550055AA55AA55AAFF55FF55FF000000D3
:10043000FF00101010FF00141414FF001010FF0034
:10044000FF1010F010F0141414FC001414F700FF47
:100450000000FF00FF1414F404FC141417101F1004
:10046000101F101F1414141F00101010F0000000B3
:10047000001F101010101F10101010F010000000BE
:10048000FF101010101010101010FF10000000FFCF
:10049000140000FF00FF00001F10170000FC04F410
:1004A00014141710171414F404F40000FF00F714C8
:1004B000141414141414F700F7141414171410104F
:1004C0001F101F141414F4141010F010F000001F6B
:1004D000101F0000001F14000000FC140000F010AA
:1004E000F01010FF10FF141414FF141010101F0050
:1004F000000000F010FFFFFFFFFFF0F0F0F0F0FF52
:10050000FFFF0000000000FFFF0F0F0F0F0F384428
:10051000443844FC4A4A4A347E02020606027E02FD
:100520007E0263554941633844443C04407E201EAA
:100530002006027E020299A5E7A5991C2A492A1CD9
:100540004C7201724C304A4D4D303048784830BCC6
:10055000625A463D3E494949007E0101017E2A2AF0
:100560002A2A2A44445F444440514A444040444A71
:1005700051400000FF0103E080FF000008086B6BA2
:10058000083612362436060F090F06000018180028
:1005900000001010003040FF0101001F01011E008B
:1005A000191D1712003C3C3C3C00000000002503D4
:1005B00095033D0811241FBECFEFD8E0DEBFCDBFAD
:1005C00011E0A0E0B1E0E6E6FCE102C005900D928A
:1005D000AC3AB107D9F723E0ACEAB1E001C01D9213
:1005E000AC34B207E1F715E0C4EBD5E004C02297C4
:1005F000FE010E94290ECE3AD107C9F72DD10C94E5
:10060000310EFECC64E78AEC91E0D5D3811106C0AF
:1006100060E071E086EE91E00CD1FFCF69E171E01E
:1006200086EE91E006D164E78EEA91E0C4D38111B1
:1006300006C066E271E086EE91E0FBD0FFCF6EE38C
:1006400071E086EE91E0F5C008958AEC91E0CED29B
:100650008EEA91E0CBD261E070E08DEA91E0F0D3D8
:1006600062E070E08CEA91E0EBC31F920F920FB64C
:100670000F9211242F938F939F93EF93FF93E09109
:10068000F601F091F7018081E091FC01F091FD010C
:1006900082FD12C090818091FF018F5F8F73209146
:1006A0000002821751F0E091FF01F0E0EA51FE4FA5
:1006B000958F8093FF0101C08081FF91EF919F9101
:1006C0008F912F910F900FBE0F901F9018951F9232
:1006D0000F920FB60F9211242F933F934F935F9376
:1006E0006F937F938F939F93AF93BF93EF93FF93FA
:1006F00086EE91E0D4D1FF91EF91BF91AF919F91A0
:100700008F917F916F915F914F913F912F910F90BA
:100710000FBE0F901F90189586EE91E086D121E0D4
:10072000892B09F420E0822F08951092E90110929C
:10073000E80188EE93E0A0E0B0E08093EA019093B6
:10074000EB01A093EC01B093ED0180E691E0909372
:10075000E7018093E60185EC90E09093F3018093AC
:10076000F20184EC90E09093F5018093F40180EC29
:1007700090E09093F7018093F60181EC90E09093E4
:10078000F9018093F80182EC90E09093FB01809353
:10079000FA0186EC90E09093FD018093FC011092A9
:1007A000FF011092000210920102109202020895BD
:1007B000CF92DF92EF92FF920F931F93CF93DF932D
:1007C0007C016A01EB0100E010E00C151D0571F0E1
:1007D0006991D701ED91FC910190F081E02DC70165
:1007E0000995892B19F00F5F1F4FEFCFC801DF91DB
:1007F000CF911F910F91FF90EF90DF90CF900895D0
:100800006115710581F0DB010D900020E9F7AD0164
:1008100041505109461B570BDC01ED91FC910280C0
:10082000F381E02D099480E090E008956BE471E09D
:10083000E7CF0F931F93CF93DF93EC01E1DF8C01A0
:10084000CE01F4DF800F911FDF91CF911F910F91A7
:1008500008950E942D0E0895ADD0FDDFD3DEC2E4D1
:10086000D5E0F2DE2097E9F30DD1FBCF1F920F9276
:100870000FB60F9211242F933F938F939F93AF93B3
:10088000BF938091840290918502A0918602B091DD
:1008900087023091830223E0230F2D3720F4019645
:1008A000A11DB11D05C026E8230F0296A11DB11D93
:1008B000209383028093840290938502A093860202
:1008C000B09387028091880290918902A0918A0258
:1008D000B0918B020196A11DB11D80938802909367
:1008E0008902A0938A02B0938B02BF91AF919F912E
:1008F0008F913F912F910F900FBE0F901F901895E1
:100900003FB7F8948091880290918902A0918A0261
:10091000B0918B0226B5A89B05C02F3F19F0019618
:10092000A11DB11D3FBF6627782F892F9A2F620F17
:10093000711D811D911D42E0660F771F881F991F51
:100940004A95D1F708958F929F92AF92BF92CF921E
:10095000DF92EF92FF926B017C01D2DF4B015C01D1
:10096000C114D104E104F104E1F03FD1C9DF6819F9
:1009700079098A099B09683E73408105910580F3D6
:1009800021E0C21AD108E108F10888EE880E83E060
:10099000981EA11CB11CC114D104E104F10431F76B
:1009A000DFCFFF90EF90DF90CF90BF90AF909F9000
:1009B0008F900895789484B5826084BD84B58160F9
:1009C00084BD85B5826085BD85B5816085BDEEE657
:1009D000F0E0808181608083E1E8F0E01082808136
:1009E00082608083808181608083E0E8F0E08081A4
:1009F00081608083E1EBF0E0808184608083E0EBC4
:100A0000F0E0808181608083EAE7F0E080818460AB
:100A10008083808182608083808181608083808107
:100A2000806880831092C1000895FC01818D228D21
:100A300090E0805C9F4F821B91098F7399270895E6
:100A4000FC01918D828D981731F0828DE80FF11D98
:100A5000858D90E008958FEF9FEF0895FC01918DB3
:100A6000828D981761F0828DDF01A80FB11D5D9610
:100A70008C91928D9F5F9F73928F90E008958FEF7E
:100A80009FEF08958CE893E0892B41F080E090E09F
:100A9000892B21F041DE81110C9400000895FC01A6
:100AA000848DDF01A80FB11DA35ABF4F2C91848DF7
:100AB00090E001968F739927848FA689B7892C932C
:100AC000A089B1898C9180648C93938D848D9813C7
:100AD00006C00288F389E02D80818F7D8083089590
:100AE000CF93DF93EC01888D8823C1F0EA89FB89DD
:100AF000808185FD05C0A889B9898C9186FD0EC0CD
:100B00000FB607FCF5CF808185FFF2CFA889B989A0
:100B10008C9185FFEDCFCE01C2DFE8CFDF91CF9181
:100B20000895CF92DF92FF920F931F93CF93DF939D
:100B30001F92CDB7DEB76C0181E0D60158968C9339
:100B400058975B969C915B975C968C915C979813F9
:100B500007C05096ED91FC915197808185FD2DC085
:100B6000F601038D10E00F5F1F4F0F731127F02E5A
:100B7000F601848DF81210C00FB607FCF9CFD6012C
:100B80005096ED91FC915197808185FFF1CFC60180
:100B9000698385DF6981ECCF838DE80FF11DE35A0E
:100BA000FF4F6083D6015B960C935B975296ED9155
:100BB000FC915397808180620CC0D6015696ED91CE
:100BC000FC91579760835096ED91FC9151978081ED
:100BD0008064808381E090E00F90DF91CF911F913E
:100BE0000F91FF90DF90CF9008950895CF93DF93FA
:100BF000EC0149E050E060E170E08FD580E791E0E2
:100C000099838883DF91CF910895CF93C62FFC01FC
:100C1000628D8CE892E013D26DEF8CE892E0C8D13F
:100C20006C2F8CE892E0C4D18CE892E0CF9123C283
:100C30000F931F93CF93DF93EC016B8DE6DF14E2EC
:100C40006A8D8CE892E0FBD1E0918C02F0918D02EC
:100C50000190F081E02D612F8CE892E0099508E188
:100C600060E08CE892E0A4D10150D1F78CE892E0EA
:100C700002D2185E143B21F7DF91CF911F910F91A3
:100C800008950F931F93CF93DF9300D0CDB7DEB7B6
:100C90008C012A834983B9DFF801628D8CE892E0E8
:100CA000CED14981642F8CE892E082D12A81622FD3
:100CB0008CE892E07DD18CE892E00F900F90DF916C
:100CC000CF911F910F91D7C1322F603928F46C5DFD
:100CD000242F462F632FD5CF0895CF92DF92EF9226
:100CE000FF920F931F93CF93DF9300D0CDB7DEB762
:100CF0007C016B018A0129833A83A6D729813A8135
:100D0000823059F08330B1F08130D1F48FE090E03F
:100D1000801B910B86016C0113C08FE090E0AC0149
:100D20004C195D096A0188E090E0FC01E01BF10BC1
:100D30008F0106C088E090E08C199D0968018C0144
:100D4000F0E1CF16D104E8F409301105D0F4A9017F
:100D50002F3F310519F010F04FEF50E06C2D80E17E
:100D6000089F600D1124F701238DC7010F900F908C
:100D7000DF91CF911F910F91FF90EF90DF90CF9077
:100D8000A3CF0F900F90DF91CF911F910F91FF9004
:100D9000EF90DF90CF900895262F683008F020E084
:100DA00041E06BE06ECF662311F021E001C020E04E
:100DB00046E06BE066CFEF92FF920F931F93CF93C5
:100DC000DF931F92CDB7DEB77C018CE892E0698398
:100DD0002DD16981F701628F138E20E04AE06BE02C
:100DE000C7014FDF6AE070E080E090E0ACDD21E019
:100DF0004AE06BE0C70145DF20E040E06BE0C7015F
:100E000040DFF701638DC701C7DFC70111DF00E0D5
:100E100010E02FEF412F602FC70133DF1F5F12312A
:100E2000C1F70F5F0830A1F760E0C701BCDF81E0C8
:100E30000F90DF91CF911F910F91FF90EF90089548
:100E4000FC0160830895833081F028F4813099F0AB
:100E50008230A1F008958730A9F08830B9F084304D
:100E6000D1F4809180008F7D03C0809180008F77C6
:100E700080938000089584B58F7702C084B58F7DFC
:100E800084BD08958091B0008F7703C08091B00039
:100E90008F7D8093B00008950F931F93CF93DF93BE
:100EA0001F92CDB7DEB7282F30E0F901E859FF4F88
:100EB0008491F901E458FF4F1491F901E057FF4F75
:100EC00004910023C1F0882319F06983BCDF698194
:100ED000E02FF0E0EE0FFF1FEC55FF4FA591B4910E
:100EE0009FB7F8948C91611103C01095812301C0C4
:100EF000812B8C939FBF0F90DF91CF911F910F910A
:100F000008958091BC0290E02091BD02821B91095E
:100F100008952091BD028091BC02281750F4E22F61
:100F2000F0E0E254FD4F808190E02F5F2093BD02FE
:100F300008958FEF9FEF0895E091BD028091BC026C
:100F4000E81730F4F0E0E254FD4F808190E008951E
:100F50008FEF9FEF08950895CF92DF92EF92FF9267
:100F60000F931F93CF93DF937C01CB018A012091D4
:100F70009802222389F0EB016B01C40ED51ECC151B
:100F8000DD0561F06991D701ED91FC910190F0814F
:100F9000E02DC7010995F3CF642FE5D0C801DF919B
:100FA000CF911F910F91FF90EF90DF90CF90089518
:100FB000CF93DF931F92CDB7DEB76983209198025C
:100FC0002223D1F020919902203240F021E030E03C
:100FD000FC013383228380E090E014C080919A0268
:100FE000E82FF0E0E556FD4F998190838F5F809365
:100FF0009A028093990204C061E0CE010196B3D0B9
:1010000081E090E00F90DF91CF910895FC01138271
:10101000128248EE53E060E070E0448355836683BB
:10102000778388E891E09183808308951092BD02D0
:101030001092BC0210929A021092990221C081E093
:10104000809398026093BB0210929A0210929902C8
:1010500008950F93062F21E0409199026BE972E009
:101060008091BB0229D010929A021092990210929C
:1010700098020F91089561E0ECCF8CE892E0C6CF22
:1010800010924B0381E0809349031092480361E082
:1010900082E102DF61E083E1FFDEE9EBF0E08081E5
:1010A0008E7F808380818D7F808388E48093B800E9
:1010B00085E48093BC0008950F93413208F04AC044
:1010C00090914B039111FCCF92E090934B030093CE
:1010D00049039FEF9093DE02109223034093220373
:1010E000FB0164E273E0DB019A2F961B941718F45E
:1010F00091919D93F9CF10924A0390914A03880FE2
:10110000892B80934A0380914803813061F41092C7
:10111000480380914A038093BB008091BC0083FD0B
:10112000F8CF85EC01C085EE8093BC00222321F02E
:1011300080914B038230E1F38091DE028F3F61F0BA
:101140008091DE02803251F08091DE02803341F4E2
:1011500083E007C081E005C080E003C082E001C0F9
:1011600084E00F910895613298F420914B0324306C
:1011700089F460930003FC0182E093E0DC012A2FF4
:10118000281B261718F421912D93F9CF80E008959C
:1011900081E0089582E0089585ED8093BC00809100
:1011A000BC0084FDFCCF10924B03089585EC809326
:1011B000BC0010924B0308951F920F920FB60F922E
:1011C00011242F933F934F935F936F937F938F934C
:1011D0009F93AF93BF93EF93FF938091B900887F64
:1011E000803609F49DC070F5883209F45CC090F433
:1011F000803109F455C038F4882309F4F3C08830ED
:1012000009F44EC0F2C0883109F44DC0803209F4AF
:101210005EC0EBC0803409F469C050F4803309F437
:1012200056C0883309F0E1C08093DE02BFDFDDC025
:10123000803509F44FC0883509F45DC0883409F061
:10124000D4C0D2C0883909F4C3C0A8F4883709F4DF
:1012500067C038F4883609F463C0803709F460C089
:10126000C4C0883809F4B4C0803909F45FC080383C
:1012700009F0BBC05BC0803B09F482C038F4803AFF
:1012800009F466C0883A09F47BC0AFC0803C09F419
:10129000A3C0883C09F4A0C0883B09F486C0A5C05F
:1012A00080914A0310C090912303809122039817E4
:1012B00070F5E091230381E08E0F80932303F0E02B
:1012C000EC5DFC4F80818093BB0085EC82C08093F5
:1012D000DE028AC0E091230381E08E0F8093230316
:1012E0008091BB00F0E0EC5DFC4F80839091230384
:1012F000809122036AC0E091230381E08E0F8093E6
:1013000023038091BB00F0E0EC5DFC4F8083809173
:101310004903811169C081E08093480384EA5DC07C
:1013200083E080934B031092DF02CFCF8091DF02E6
:10133000803208F04DC0E091DF0281E08E0F809393
:10134000DF028091BB00F0E0E052FD4F8083BDCF13
:101350002DDF8091DF02803230F4E091DF02F0E097
:10136000E052FD4F10826091DF0270E0E091440393
:10137000F091450380EE92E009951092DF0235C0AE
:1013800084E080934B031092010310920003E091DC
:101390004603F0914703099580910003811105C030
:1013A00081E08093000310920203E091010381E049
:1013B0008E0F80930103F0E0EE5FFC4F80818093FD
:1013C000BB009091010380910003981708F47DCF32
:1013D00085E88093BC0009C085EC8093BC00109226
:1013E0004B0303C01092DE02D7DEFF91EF91BF9155
:1013F000AF919F918F917F916F915F914F913F91AD
:101400002F910F900FBE0F901F9018952F923F9223
:101410004F925F926F927F928F929F92AF92BF9204
:10142000CF92DF92EF92FF920F931F93CF93DF93B0
:1014300000D000D0CDB7DEB74C017C836B836A014E
:101440005901C8018701AC014C195D0957FF03C060
:1014500051954195510995016B817C81261B370B74
:1014600037FF03C031952195310922242394312C73
:101470002417350714F0212C312C2114310459F094
:101480003A2D2B2D5C01832F922F3B812C81DC8206
:10149000CB82C32ED22EAB81BC81AA16BB065CF4D4
:1014A0003C2D2D2D6C01832F922F3B812C81BC82F2
:1014B000AB82A32EB22E2501EB81FC814E1A5F0A6E
:1014C0003C016C187D0877FE03C07194619471082B
:1014D000720157FE03C0FFEFEF1AFF0AF594E7947D
:1014E000C816D9062CF421E030E03A83298324C0C1
:1014F0006FEF7FEF7A8369831FC0D401ED91FC9178
:101500000480F581E02D980121143104D9F04B813C
:101510005C81B601C4010995E618F708F7FE06C01C
:10152000E981FA81CE0EDF1EE40CF51C2B813C8193
:101530002F5F3F4F3C832B836B817C81A616B706C0
:10154000E4F604C0A6016B817C81E4CF0F900F907C
:101550000F900F90DF91CF911F910F91FF90EF901F
:10156000DF90CF90BF90AF909F908F907F906F90C3
:101570005F904F903F902F9008956F927F928F923F
:101580009F92AF92BF92CF92DF92EF92FF920F9312
:101590001F93CF93DF93EC015B016A01390148018E
:1015A000E881F9810284F385E02D87010995E881BE
:1015B000F981A601480D591D415051090284F38556
:1015C000E02D9301B501CE010995E881F9810084F0
:1015D000F185E02D9401A601B501CE010995E881C0
:1015E000F981B501660D771D615071090084F1859F
:1015F000E02D9401A601CE010995DF91CF911F91B5
:101600000F91FF90EF90DF90CF90BF90AF909F90A1
:101610008F907F906F900895EF92FF920F931F939A
:10162000DC01ED91FC91240F351F2150310906801A
:10163000F781E02D780189019B0109951F910F9198
:10164000FF90EF900895EF92FF920F931F93DC01AC
:10165000ED91FC91260F371F215031090680F7814B
:10166000E02D78018A0109951F910F91FF90EF906D
:1016700008956F927F928F929F92AF92BF92CF9276
:10168000DF92EF92FF920F931F93CF93DF935C0152
:101690004A0169013801EB01C60ED71ECC15DD05E4
:1016A00074F4D501ED91FC910084F185E02D870162
:1016B0009301A401BE01C50109952196EFCFDF91E9
:1016C000CF911F910F91FF90EF90DF90CF90BF903F
:1016D000AF909F908F907F906F900895EF92FF92C0
:1016E0000F931F93DC01ED91FC9111971A960D91C8
:1016F0001C911B9718962D913C9119970684F7859C
:10170000E02D7B0140E050E060E070E009951F9122
:101710000F91FF90EF9008950895FC0113821282BB
:1017200088E991E09183808375836483578346833E
:101730007187608753874287158A158614861786B6
:10174000168621E0248B8FEF9FEF938B828B918BFA
:10175000808B268B178A118E108E08952F923F92C0
:101760004F925F926F927F928F929F92AF92BF92B1
:10177000CF92DF92EF92FF920F931F93CF93DF935D
:10178000CDB7DEB76A970FB6F894DEBF0FBECDBFF8
:101790001C0158874F831C870B87FA86E986CC8209
:1017A000DC0158964D915C9159974115510509F00E
:1017B000A6C018968D919C911997681779070CF01F
:1017C00056C11A968D919C911B97EF81F885E81769
:1017D000F9070CF04CC1D12CCB013C81F6E03F9FC6
:1017E000800D911D1124181619060CF040C1C60178
:1017F00003E0880F991F0A95E1F74F815885840F00
:10180000951F181619060CF032C157968C9181114C
:1018100003C0203B08F02F5F7E876D874B01198244
:101820001EEAA12E10E0B12EA61AB70A55E0259F98
:10183000A00CB11C11248981853039F0ED85FE851D
:10184000EA0DFB1D94919A8301C01A826F807884FF
:101850002301A8E0AD83BA81B0FF12C0D101ED91A0
:10186000FC91BC81B13031F40480F581E02D2B85F1
:101870003C8518C00684F785E02DEB84FC841DC0F0
:10188000E985FA852B853C85E217F307E1F0D10164
:10189000ED91FC91BC81B13059F40480F581E02DCB
:1018A00029853A85A2016D857E85C10109950BC008
:1018B0000684F785E02DE984FA8486019601A30168
:1018C000B401C1010995EA81E695EA83FD81F150F1
:1018D000FD836C0C7D1C2FEF421A520AF111BBCF15
:1018E00039813F5F39838C0C9D1C4D855E854F5F30
:1018F0005F4F5E874D87363009F09DCFB8C0FA0143
:1019000034963491329785919491231BA7E02A9FB6
:10191000800D911D1124FA0125913491398B288B6A
:10192000FC01459154915A8F498FFC013296549194
:1019300059873196A491AF873196E491FC01359691
:10194000249131968491BC81B23050F0622E77247C
:1019500067FC7094E82FFF27E7FDF095FE87ED8781
:10196000FC81CF2ED12C6C9C40016D9C900C7C9CFA
:10197000900C1124860E971EA12C1982DE8ACD8A26
:10198000AB01420F511D27FD5A955E834D83AF81F8
:10199000B885A80FB11D87FDBA95B88FAF8B598157
:1019A0008F85581708F063C0852F90E02D853E8500
:1019B000280F391F2C9DD0012D9DB00D3C9DB00DE1
:1019C0001124EF81F885EA0FFB1FFB83EA836D800A
:1019D0007E802401FA2D2D81F21BFA8B4F89588DC0
:1019E000480F591F5C8B4B8B9A89960D862D2D8144
:1019F000821B39858317B0F5977061F4898D9A8DB4
:101A00000196E889F989298D3A8DE20FF31FB49088
:101A10009A8F898FB7FE1DC0D101ED91FC91BC81D9
:101A2000B13059F40480F581E02D2B853C854B893C
:101A30005C89B301C10109950CC00684F785E02DCE
:101A4000EB84FC84860196014A815B81B201C1016D
:101A50000995BB0CED89FE894E0E5F1EFFEF6F1AD4
:101A60007F0AC2CFA30E49814F5F498398CF6A9600
:101A70000FB6F894DEBF0FBECDBFDF91CF911F919F
:101A80000F91FF90EF90DF90CF90BF90AF909F901D
:101A90008F907F906F905F904F903F902F90089520
:101AA000AF92BF92CF92EF92FF920F931F93CF937B
:101AB000DF93EC01262F888D998D009709F041C0A6
:101AC0006A3069F42C898E859F8538E0239F800DCC
:101AD000911D11249F878E871D861C86A9C06D309D
:101AE00009F4A6C08E898823C1F03C898C859D8528
:101AF00046E0349F800D911D112448855985841737
:101B000095075CF01D861C868E859F85E8E03E9FCC
:101B1000800D911D11249F878E87EA88FB88088994
:101B200019894E855F856C857D85CC88CE0116DE52
:101B30002C898C859D85F6E02F9F800D911D1124A9
:101B400041C06A3079F41D861C864C89FC013696AA
:101B500084912E853F85489F200D311D11243F879C
:101B60002E8766C06D3009F463C0AC014C5F5F4FD7
:101B7000FA013491631708F45BC03196E491E617DB
:101B800008F456C0FA014491362F341BFC013296FA
:101B9000A590B490F7E03F9FA00CB11C1124F50173
:101BA0003296A4913196E491AA2311F0E1110DC06F
:101BB000F5013496A4902C898C859D85A29E800D7C
:101BC000911D11249D878C8733C0F5013596E491D2
:101BD0003E89332309F13C89B0E0AE0FB11DE7FD2A
:101BE000BA953A9FA0013B9F500D11246C857D85CD
:101BF000460F571F68857985461757076CF01D8675
:101C00001C86FC01369684914E855F85389F400D79
:101C1000511D11245F874E87EA88FB88088919893E
:101C20004E855F856C857D85CC88CE0197DDC0CFE4
:101C300081E090E0DF91CF911F910F91FF90EF90A5
:101C4000CF90BF90AF900895FC0185890895EE0F65
:101C5000FF1F0590F491E02D099481E090E0F89445
:061C600000C0F894FFCF64
:101C66004552524F523A20495333315F31206E6FFD
:101C76007420666F756E642100495333315F3120DD
:101C8600666F756E64004552524F523A204953337F
:101C9600315F32206E6F20666F756E642100495386
:101CA60033315F3220666F756E64000D0A006E6117
:101CB6006E00696E66006F7666002E0000000000FA
:101CC6009105D80315052E052005700500000000B6
:101CD600500DD8036D06060A0C0B230BBD0A390BF3
:101CE6006E0B8C0B00000000D807AC078107890734
:101CF6009C07AB0700000000500DD8032904060A14
:0C1D06000C0B230BBD0A390B6E0B8C0B71
:00000001FF
